:030000000268C8CB
:0C68C800787FE4F6D8FD7581BB02690FF3
:026AE000230091
:106A9000045A00000000045E000000000270001EA6
:106AA000046C3D99999A0262000002720007027418
:026AB0000006DE
:106AB300C29FD29ED29C758920758DFD758BFDD2A8
:026AC3008E2221
:066A40007572007573027F
:106A46007FFA7E00C3EF9571EE95704015E4FDFC6C
:106A56000DBD00010CED64734C70F5EF1F70E51E63
:026A660080E2CC
:016A6800220B
:085E1D00AF6FAE6EAD6DAC6C11
:105E25008F598E588D578C56E57270FCE57314B4F6
:105E3500080050F4905E4775F003A4C58325F0C5AE
:105E45008373025E5F025E9A025EDE025F22025F7C
:105E550066025FAA025FEE026032D290C291C292E0
:105E6500C293AF59AE58AD57AC567B9A7A9979998A
:105E750078BD122E1B8F598E588D578C56126A403D
:105E8500E4FFFEFDFCAB59AA58A957A8561230B23B
:105E95006002509422D290C291D292C293AF59AE71
:105EA50058AD57AC567B9A7A99799978BD122E1BC5
:105EB5008F598E588D578C56757200757303126AFB
:105EC50046E4FFFEFDFCAB59AA58A957A856123067
:105ED500B260054003025E2D22C290C291D292C2E9
:105EE50093AF59AE58AD57AC567B9A7A9979997854
:105EF500BD122E1B8F598E588D578C567572007595
:105F05007304126A46E4FFFEFDFCAB59AA58A95773
:105F1500A8561230B260054003025E2D22C290D20F
:105F250091D292C293AF59AE58AD57AC567B9A7A7F
:105F350099799978BD122E1B8F598E588D578C568D
:105F4500757200757305126A46E4FFFEFDFCAB59D8
:105F5500AA58A957A8561230B260054003025E2D13
:105F650022C290D291C292C293AF59AE58AD57ACEE
:105F7500567B9A7A99799978BD122E1B8F598E582E
:105F85008D578C56757200757306126A46E4FFFECE
:105F9500FDFCAB59AA58A957A8561230B260054066
:105FA50003025E2D22C290D291C292D293AF59AE16
:105FB50058AD57AC567B9A7A99799978BD122E1BB4
:105FC5008F598E588D578C56757200757307126AE6
:105FD50046E4FFFEFDFCAB59AA58A957A856123056
:105FE500B260054003025E2D22C290C291C292D2D8
:105FF50093AF59AE58AD57AC567B9A7A9979997843
:10600500BD122E1B8F598E588D578C567572007583
:106015007308126A46E4FFFEFDFCAB59AA58A9575E
:10602500A8561230B260054003025E2D22D290C2FE
:1060350091C292D293AF59AE58AD57AC567B9A7A6E
:1060450099799978BD122E1B8F598E588D578C567C
:10605500757200757301126A46E4FFFEFDFCAB59CB
:10606500AA58A957A8561230B260054003025E2D02
:016075002208
:08607600AF6FAE6EAD6DAC6CB6
:10607E008F598E588D578C56E57270FCE57314B49B
:10608E00080050F49060A075F003A4C58325F0C5F8
:10609E0083730260B802628B02624D026209026172
:1060AE00C502618102613D0260F9D290C291C29235
:1060BE00D293AF59AE58AD57AC567B9A7A9979991F
:1060CE0078BD122E1B8F598E588D578C56757200B7
:1060DE00757308126A46E4FFFEFDFCAB59AA58A977
:1060EE0057A8561230B26002508E22C290C291C290
:1060FE0092D293AF59AE58AD57AC567B9A7A9979E6
:10610E009978BD122E1B8F598E588D578C567572DD
:10611E0000757307126A46E4FFFEFDFCAB59AA58E0
:10612E00A957A8561230B26005400302608622C2FB
:10613E0090D291C292D293AF59AE58AD57AC567B16
:10614E009A7A99799978BD122E1B8F598E588D5740
:10615E008C56757200757306126A46E4FFFEFDFCDE
:10616E00AB59AA58A957A8561230B260054003027F
:10617E00608622C290D291C292C293AF59AE58ADF0
:10618E0057AC567B9A7A99799978BD122E1B8F59F6
:10619E008E588D578C56757200757305126A46E4CB
:1061AE00FFFEFDFCAB59AA58A957A8561230B26093
:1061BE0005400302608622C290D291D292C293AF62
:1061CE0059AE58AD57AC567B9A7A99799978BD12DB
:1061DE002E1B8F598E588D578C5675720075730401
:1061EE00126A46E4FFFEFDFCAB59AA58A957A85601
:1061FE001230B26005400302608622C290C291D274
:10620E0092C293AF59AE58AD57AC567B9A7A9979E4
:10621E009978BD122E1B8F598E588D578C567572CC
:10622E0000757303126A46E4FFFEFDFCAB59AA58D3
:10623E00A957A8561230B26005400302608622D2DA
:10624E0090C291D292C293AF59AE58AD57AC567B15
:10625E009A7A99799978BD122E1B8F598E588D572F
:10626E008C56126A40E4FFFEFDFCAB59AA58A957A2
:10627E00A8561230B26005400302608622D290C248
:10628E0091C292C293AF59AE58AD57AC567B9A7A23
:10629E0099799978BD122E1B8F598E588D578C5621
:1062AE00757200757301126A46E4FFFEFDFCAB5970
:1062BE00AA58A957A8561230B2600540030260864C
:0162CE0022AD
:10592900AF39AE38AD37AC36AB6FAA6EA96DA86C7E
:10593900122E178F398E388D378C36AF6FAE6EAD0C
:035949006DAC6CD6
:10594C008F598E588D578C56E57470FCE57514B4D0
:10595C00080050F490596E75F003A4C58325F0C56A
:10596C0083730259860259C7025A0B025A4F025AC4
:10597C0093025AD7025B1B025B5FD280C281C28248
:10598C00C283AF59AE58AD57AC567B9A7A99799978
:10599C0078BD122E1B8F598E588D578C56757400EE
:1059AC00757502126A46E4FFFEFDFCAB59AA58A9B4
:1059BC0057A8561230B26002508E22D280C281D2C9
:1059CC0082C283AF59AE58AD57AC567B9A7A99794F
:1059DC009978BD122E1B8F598E588D578C56757415
:1059EC0000757503126A46E4FFFEFDFCAB59AA581C
:1059FC00A957A8561230B26005400302595422C26E
:105A0C0080C281D282C283AF59AE58AD57AC567B9F
:105A1C009A7A99799978BD122E1B8F598E588D5779
:105A2C008C56757400757504126A46E4FFFEFDFC15
:105A3C00AB59AA58A957A8561230B26005400302B8
:105A4C00595422C280D281D282C283AF59AE58AD92
:105A5C0057AC567B9A7A99799978BD122E1B8F592F
:105A6C008E588D578C56757400757505126A46E400
:105A7C00FFFEFDFCAB59AA58A957A8561230B260CC
:105A8C0005400302595422C280D281C282C283AF24
:105A9C0059AE58AD57AC567B9A7A99799978BD1214
:105AAC002E1B8F598E588D578C5675740075750634
:105ABC00126A46E4FFFEFDFCAB59AA58A957A8563A
:105ACC001230B26005400302595422C280D281C206
:105ADC0082D283AF59AE58AD57AC567B9A7A99792E
:105AEC009978BD122E1B8F598E588D578C56757404
:105AFC0000757507126A46E4FFFEFDFCAB59AA5807
:105B0C00A957A8561230B26005400302595422C25C
:105B1C0080C281C282D283AF59AE58AD57AC567B8E
:105B2C009A7A99799978BD122E1B8F598E588D5768
:105B3C008C56757400757508126A46E4FFFEFDFC00
:105B4C00AB59AA58A957A8561230B26005400302A7
:105B5C00595422D280C281C282D283AF59AE58AD81
:105B6C0057AC567B9A7A99799978BD122E1B8F591E
:105B7C008E588D578C56757400757501126A46E4F3
:105B8C00FFFEFDFCAB59AA58A957A8561230B260BB
:075B9C0005400302595422E9
:105BA300AF39AE38AD37AC36AB6FAA6EA96DA86C02
:105BB300122E178F398E388D378C36AF6FAE6EAD90
:035BC3006DAC6C5A
:105BC6008F598E588D578C56E57470FCE57514B454
:105BD600080050F4905BE875F003A4C58325F0C572
:105BE6008373025C00025DD9025D95025D51025D20
:105BF6000D025CC9025C85025C41D280C281C28210
:105C0600D283AF59AE58AD57AC567B9A7A997999EB
:105C160078BD122E1B8F598E588D578C5675740071
:105C2600757508126A46E4FFFEFDFCAB59AA58A931
:105C360057A8561230B26002508E22C280C281C26C
:105C460082D283AF59AE58AD57AC567B9A7A9979C2
:105C56009978BD122E1B8F598E588D578C56757498
:105C660000757507126A46E4FFFEFDFCAB59AA589B
:105C7600A957A8561230B260054003025BCE22C275
:105C860080D281C282D283AF59AE58AD57AC567B13
:105C96009A7A99799978BD122E1B8F598E588D57FD
:105CA6008C56757400757506126A46E4FFFEFDFC97
:105CB600AB59AA58A957A8561230B260054003023C
:105CC6005BCE22C280D281C282C283AF59AE58ADAA
:105CD60057AC567B9A7A99799978BD122E1B8F59B3
:105CE6008E588D578C56757400757505126A46E484
:105CF600FFFEFDFCAB59AA58A957A8561230B26050
:105D0600054003025BCE22C280D281D282C283AF1B
:105D160059AE58AD57AC567B9A7A99799978BD1297
:105D26002E1B8F598E588D578C56757400757504B9
:105D3600126A46E4FFFEFDFCAB59AA58A957A856BD
:105D46001230B260054003025BCE22C280C281D20D
:105D560082C283AF59AE58AD57AC567B9A7A9979C1
:105D66009978BD122E1B8F598E588D578C56757487
:105D760000757503126A46E4FFFEFDFCAB59AA588E
:105D8600A957A8561230B260054003025BCE22D254
:105D960080C281D282C283AF59AE58AD57AC567B12
:105DA6009A7A99799978BD122E1B8F598E588D57EC
:105DB6008C56757400757502126A46E4FFFEFDFC8A
:105DC600AB59AA58A957A8561230B260054003022B
:105DD6005BCE22D280C281C282C283AF59AE58AD99
:105DE60057AC567B9A7A99799978BD122E1B8F59A2
:105DF6008E588D578C56757400757501126A46E477
:105E0600FFFEFDFCAB59AA58A957A8561230B2603E
:075E1600054003025BCE22F0
:066A69008B088A09890A6E
:106A6F00E4FFFEAB08AA09A90A8F828E831231EACE
:106A7F00600EF5993099FDC2990FBF00010E80E3AA
:016A8F0022E4
:0866D8008F3D8E3C8D3B8C3A96
:1066E000E4F545F544F543F542F549F548F547F538
:1066F00046AB5DAA5CA95BA85A122E17126AD38F0B
:10670000458E448D438C42AB61AA60A95FA85EAF01
:1067100041AE40AD3FAC3E122E17126AD38F498E68
:10672000488D478C46AF5DAE5CAD5BAC5AAB3DAAC5
:106730003CA93BA83A1230B2AF45AE44AD43AC429F
:1067400060074005125E25800312607EAF61AE6077
:10675000AD5FAC5EAB41AA40A93FA83E1230B2AFDC
:1067600049AE48AD47AC466007400512594C80031E
:10677000125BC6853D5D853C5C853B5B853A5A85F1
:0B6780004161854060853F5F853E5E03
:01678B0022EB
:0821C9008F1D8E1C8D1B8C1A6A
:1021D100E4F529F528F527F526855D2D855C2C8507
:1021E1005B2B855A2A856131856030855F2F855E3D
:1021F1002EF539F538F537F536AF5DAE5CAD5BAC34
:102201005AAB1DAA1CA91BA81A1230B27018AF61D3
:10221100AE60AD5FAC5EAB21AA20A91FA81E123033
:10222100B27003022E13AB5DAA5CA95BA85AAF1D65
:10223100AE1CAD1BAC1A122E17E4FBFAF9F81230E2
:10224100B2601DAB61AA60A95FA85EAF21AE20ADEF
:102251001FAC1E122E17E4FBFAF9F81230B27017F8
:10226100852141852040851F3F851E3EAF1DAE1C47
:10227100AD1BAC1A0266D8AB5DAA5CA95BA85AAFCC
:102281001DAE1CAD1BAC1A122E17E4FBFAF9F812A5
:1022910030B27003022E13AB5DAA5CA95BA85AAFE2
:1022A1001DAE1CAD1BAC1A122E17C004C005C00612
:1022B100C007AB61AA60A95FA85EAF21AE20AD1FC8
:1022C100AC1E122E17D003D002D001D0001230154F
:1022D1008F258E248D238C22AB61AA60A95FA85E15
:1022E100AF21AE20AD1FAC1E122E17126AD3C0044F
:1022F100C005C006C007AB5DAA5CA95BA85AAF1DAB
:10230100AE1CAD1BAC1A122E17126AD3D003D00229
:10231100D001D000122E1BAB6FAA6EA96DA86C1252
:1023210030158F358E348D338C32E4FFFEFDFCABDE
:1023310025AA24A923A8221230B260025003022543
:10234100CEAF5DAE5CAD5BAC5AAB1DAA1CA91BA8A0
:102351001A1230B2600250030225CEAF61AE60ADF9
:102361005FAC5EAB21AA20A91FA81E1230B2600289
:1023710050030225CEAF35AE34AD33AC32AB39AA02
:1023810038A937A8361230B240030225CEAF5DAE70
:102391005CAD5BAC5AAB2DAA2CA92BA82A1230B28A
:1023A100600302242CAF61AE60AD5FAC5EAB31AABD
:1023B10030A92FA82E1230B27071125E1DAF2DAE52
:1023C1002CAD2BAC2AAB6FAA6EA96DA86C122E1B7B
:1023D1008F2D8E2C8D2B8C2AAB5DAA5CA95BA85A04
:1023E100122E17C004C005C006C007AB61AA60A9C0
:1023F1005FA85EAF31AE30AD2FAC2E122E17D003D9
:10240100D002D001D0001230158F298E288D278C53
:1024110026AF39AE38AD37AC36E4FBFA7980783F78
:10242100122E1B8F398E388D378C36AF25AE24ADE9
:1024310023AC22AB29AA28A927A8261230B2707191
:10244100125E1DAF2DAE2CAD2BAC2AAB6FAA6EA9BF
:102451006DA86C122E1B8F2D8E2C8D2B8C2AAB5DB3
:10246100AA5CA95BA85A122E17C004C005C006C0F9
:1024710007AB61AA60A95FA85EAF31AE30AD2FACEA
:102481002E122E17D003D002D001D0001230158F9A
:10249100298E288D278C26AF39AE38AD37AC36E47E
:1024A100FBFA7980783F122E1B8F398E388D378C4D
:1024B10036AF25AE24AD23AC22AB29AA28A927A883
:1024C100261230B25079125944AF31AE30AD2FAC33
:1024D1002EAB6FAA6EA96DA86C122E1B8F318E3098
:1024E1008D2F8C2EAB5DAA5CA95BA85AAF2DAE2CAB
:1024F100AD2BAC2A122E17C004C005C006C007AB15
:1025010061AA60A95FA85EAF31AE30AD2FAC2E12CB
:102511002E17D003D002D001D0001230158F298E92
:10252100288D278C26AF39AE38AD37AC36E4FBFAAF
:102531007980783F122E1B8F398E388D378C36AFCC
:1025410025AE24AD23AC22AB29AA28A927A826129F
:1025510030B260025003022376125E1DAF2DAE2C05
:10256100AD2BAC2AAB6FAA6EA96DA86C122E1B8F76
:102571002D8E2C8D2B8C2AAB5DAA5CA95BA85A12DF
:102581002E17C004C005C006C007AB61AA60A95FD1
:10259100A85EAF31AE30AD2FAC2E122E17D003D0C6
:1025A10002D001D0001230158F298E288D278C265C
:1025B100AF39AE38AD37AC36E4FBFA7980783F12EB
:1025C1002E1B8F398E388D378C36022376E4FFFE31
:1025D100FDFCAB25AA24A923A8221230B240030294
:1025E1002895AF5DAE5CAD5BAC5AAB1DAA1CA91BB7
:1025F100A81A1230B24003022895AF61AE60AD5FF8
:10260100AC5EAB21AA20A91FA81E1230B2600250F5
:1026110003022895AF35AE34AD33AC32AB39AA38AD
:10262100A937A8361230B24003022895AF5DAE5CDF
:10263100AD5BAC5AAB2DAA2CA92BA82A1230B260E3
:10264100030226F3AF61AE60AD5FAC5EAB31AA3081
:10265100A92FA82E1230B260030226F3126076AFC2
:102661002DAE2CAD2BAC2AAB6FAA6EA96DA86C1246
:102671002E178F2D8E2C8D2B8C2A125944AF31AEF3
:1026810030AD2FAC2EAB6FAA6EA96DA86C122E1BAC
:102691008F318E308D2F8C2EAB5DAA5CA95BA85A31
:1026A100AF2DAE2CAD2BAC2A122E17C004C005C025
:1026B10006C007AB61AA60A95FA85EAF31AE30ADBD
:1026C1002FAC2E122E17D003D002D001D000123021
:1026D100158F298E288D278C26AF39AE38AD37ACB2
:1026E10036E4FBFAF97840122E1B8F398E388D377C
:1026F1008C36AF25AE24AD23AC22AB29AA28A9275D
:10270100A8261230B27071126076AF2DAE2CAD2BAF
:10271100AC2AAB6FAA6EA96DA86C122E178F2D8EE5
:102721002C8D2B8C2AAB5DAA5CA95BA85A122E17A3
:10273100C004C005C006C007AB61AA60A95FA85E5E
:10274100AF31AE30AD2FAC2E122E17D003D002D048
:1027510001D0001230158F298E288D278C26AF3994
:10276100AE38AD37AC36E4FBFA7980783F122E1BD8
:102771008F398E388D378C36AF25AE24AD23AC2200
:10278100AB29AA28A927A8261230B2507112607667
:10279100AF2DAE2CAD2BAC2AAB6FAA6EA96DA86C78
:1027A100122E178F2D8E2C8D2B8C2AAB5DAA5CA936
:1027B1005BA85A122E17C004C005C006C007AB6142
:1027C100AA60A95FA85EAF31AE30AD2FAC2E122E3C
:1027D10017D003D002D001D0001230158F298E28D6
:1027E1008D278C26AF39AE38AD37AC36E4FBFA799C
:1027F10080783F122E1B8F398E388D378C36AF255E
:10280100AE24AD23AC22AB29AA28A927A8261230D1
:10281100B260025003022615125944AF31AE30ADF9
:102821002FAC2EAB6FAA6EA96DA86C122E1B8F3127
:102831008E308D2F8C2EAB5DAA5CA95BA85AAF2D73
:10284100AE2CAD2BAC2A122E17C004C005C006C099
:1028510007AB61AA60A95FA85EAF31AE30AD2FAC06
:102861002E122E17D003D002D001D0001230158FB6
:10287100298E288D278C26AF39AE38AD37AC36E49A
:10288100FBFA7980783F122E1B8F398E388D378C69
:1028910036022615E4FFFEFDFCAB25AA24A923A8D8
:1028A100221230B260025003022B34AF5DAE5CAD38
:1028B1005BAC5AAB1DAA1CA91BA81A1230B240036B
:1028C100022B34AF61AE60AD5FAC5EAB21AA20A933
:1028D1001FA81E1230B24003022B34AF35AE34AD07
:1028E10033AC32AB39AA38A937A8361230B240031B
:1028F100022B34AF5DAE5CAD5BAC5AAB2DAA2CA9FB
:102901002BA82A1230B26003022992AF61AE60ADEA
:102911005FAC5EAB31AA30A92FA82E1230B2707114
:10292100126076AF2DAE2CAD2BAC2AAB6FAA6EA97F
:102931006DA86C122E178F2D8E2C8D2B8C2AAB5DD2
:10294100AA5CA95BA85A122E17C004C005C006C014
:1029510007AB61AA60A95FA85EAF31AE30AD2FAC05
:102961002E122E17D003D002D001D0001230158FB5
:10297100298E288D278C26AF39AE38AD37AC36E499
:10298100FBFA7980783F122E1B8F398E388D378C68
:1029910036AF25AE24AD23AC22AB29AA28A927A89E
:1029A100261230B25079125BBEAF31AE30AD2FACD2
:1029B1002EAB6FAA6EA96DA86C122E178F318E30B7
:1029C1008D2F8C2EAB5DAA5CA95BA85AAF2DAE2CC6
:1029D100AD2BAC2A122E17C004C005C006C007AB30
:1029E10061AA60A95FA85EAF31AE30AD2FAC2E12E7
:1029F1002E17D003D002D001D0001230158F298EAE
:102A0100288D278C26AF39AE38AD37AC36E4FBFACA
:102A11007980783F122E1B8F398E388D378C36AFE7
:102A210025AE24AD23AC22AB29AA28A927A82612BA
:102A310030B27071126076AF2DAE2CAD2BAC2AABDB
:102A41006FAA6EA96DA86C122E178F2D8E2C8D2B4F
:102A51008C2AAB5DAA5CA95BA85A122E17C004C0D0
:102A610005C006C007AB61AA60A95FA85EAF31AE21
:102A710030AD2FAC2E122E17D003D002D001D000D2
:102A81001230158F298E288D278C26AF39AE38AD9F
:102A910037AC36E4FBFA7980783F122E1B8F398EE2
:102AA100388D378C36AF25AE24AD23AC22AB29AAA5
:102AB10028A927A8261230B2600250030228DC128E
:102AC1006076AF2DAE2CAD2BAC2AAB6FAA6EA96D83
:102AD100A86C122E178F2D8E2C8D2B8C2AAB5DAAF4
:102AE1005CA95BA85A122E17C004C005C006C00716
:102AF100AB61AA60A95FA85EAF31AE30AD2FAC2E3D
:102B0100122E17D003D002D001D0001230158F2918
:102B11008E288D278C26AF39AE38AD37AC36E4FB25
:102B2100FA7980783F122E1B8F398E388D378C368B
:102B31000228DCE4FFFEFDFCAB25AA24A923A82280
:102B41001230B24003022DFBAF5DAE5CAD5BAC5AFF
:102B5100AB1DAA1CA91BA81A1230B26002500302B5
:102B61002DFBAF61AE60AD5FAC5EAB21AA20A91FAA
:102B7100A81E1230B24003022DFBAF35AE34AD3387
:102B8100AC32AB39AA38A937A8361230B2400302A9
:102B91002DFBAF5DAE5CAD5BAC5AAB2DAA2CA92B66
:102BA100A82A1230B26003022C59AF61AE60AD5F4A
:102BB100AC5EAB31AA30A92FA82E1230B26003024D
:102BC1002C59125E1DAF2DAE2CAD2BAC2AAB6FAACA
:102BD1006EA96DA86C122E1B8F2D8E2C8D2B8C2A1D
:102BE100125BBEAF31AE30AD2FAC2EAB6FAA6EA96A
:102BF1006DA86C122E178F318E308D2F8C2EAB5D00
:102C0100AA5CA95BA85AAF2DAE2CAD2BAC2A122E13
:102C110017C004C005C006C007AB61AA60A95FA8C0
:102C21005EAF31AE30AD2FAC2E122E17D003D002D5
:102C3100D001D0001230158F298E288D278C26AF18
:102C410039AE38AD37AC36E4FBFAF97840122E1BB9
:102C51008F398E388D378C36AF25AE24AD23AC221B
:102C6100AB29AA28A927A8261230B27071125E1DBD
:102C7100AF2DAE2CAD2BAC2AAB6FAA6EA96DA86C93
:102C8100122E1B8F2D8E2C8D2B8C2AAB5DAA5CA94D
:102C91005BA85A122E17C004C005C006C007AB615D
:102CA100AA60A95FA85EAF31AE30AD2FAC2E122E57
:102CB10017D003D002D001D0001230158F298E28F1
:102CC1008D278C26AF39AE38AD37AC36E4FBFA79B7
:102CD10080783F122E1B8F398E388D378C36AF2579
:102CE100AE24AD23AC22AB29AA28A927A8261230ED
:102CF100B2607B4079125BBEAF31AE30AD2FAC2EEE
:102D0100AB6FAA6EA96DA86C122E178F318E308D04
:102D11002F8C2EAB5DAA5CA95BA85AAF2DAE2CAD52
:102D21002BAC2A122E17C004C005C006C007AB6128
:102D3100AA60A95FA85EAF31AE30AD2FAC2E122EC6
:102D410017D003D002D001D0001230158F298E2860
:102D51008D278C26AF39AE38AD37AC36E4FBFA7926
:102D610080783F122E1B8F398E388D378C36AF25E8
:102D7100AE24AD23AC22AB29AA28A927A82612305C
:102D8100B24003022B7B125E1DAF2DAE2CAD2BACDE
:102D91002AAB6FAA6EA96DA86C122E1B8F2D8E2CDB
:102DA1008D2B8C2AAB5DAA5CA95BA85A122E17C089
:102DB10004C005C006C007AB61AA60A95FA85EAFE9
:102DC10031AE30AD2FAC2E122E17D003D002D00170
:102DD100D0001230158F298E288D278C26AF39AE61
:102DE10038AD37AC36E4FBFA7980783F122E1B8F71
:102DF100398E388D378C36022B7B851D5D851C5CA9
:102E0100851B5B851A5A852161852060851F5F8539
:022E11001E5E43
:012E1300229C
:1054990085612D85602C855F2B855E2A8567318521
:1054A900663085652F85642EAF25AE24AD23AC22E9
:1054B900AB6BAA6AA969A868122E1B8F358E348D29
:0B54C900338C32AF5DAE5CAD5BAC5AC3
:0854D4008F298E288D278C26FC
:1054DC008F398E388D378C36852D3D852C3C852B20
:1054EC003B852A3AE4F545F544F543F542F549F593
:1054FC0048F547F546AB2DAA2CA92BA82AAF35AEFB
:10550C0034AD33AC32122E17126AD3C004C005C0AE
:10551C0006C007AB29AA28A927A826AF31AE30AD03
:10552C002FAC2E122E17126AD3D003D002D001D07A
:10553C0000122E1BAB6FAA6EA96DA86C1230158FC2
:10554C00418E408D3F8C3EAF41AE40AD3FAC3EAB4B
:10555C0045AA44A943A8421230B24003025928E498
:10556C00FFFEFD7C40AB6FAA6EA96DA86C122F0CD0
:10557C00AB39AA38A937A836122F0CA804A905AA4A
:10558C0006AB07AF49AE48AD47AC46122E17C00468
:10559C00C005C006C007AF6FAE6EAD6DAC6CAB6F27
:1055AC00AA6EA96DA86C122F0CD003D002D001D01A
:1055BC0000122E1BC004C005C006C007E4FFFEFD90
:1055CC007C40AB67AA66A965A864122F0CAB6FAAC6
:1055DC006EA96DA86C122F0CD003D002D001D00094
:1055EC00122E1B8F4D8E4C8D4B8C4AE4FFFEFD7C96
:1055FC0040AB6FAA6EA96DA86C122F0CAB3DAA3CE8
:10560C00A93BA83A122F0CAB49AA48A947A84612A5
:10561C002E1BC004C005C006C007AF6FAE6EAD6DCB
:10562C00AC6CAB6FAA6EA96DA86C122F0CD003D00A
:10563C0002D001D000122E1BC004C005C006C0074A
:10564C00E4FFFEFD7C40AB6BAA6AA969A868122F27
:10565C000CAB6FAA6EA96DA86C122F0CA804A9052F
:10566C00AA06AB07D007D006D005D004122E178F90
:10567C00518E508D4F8C4EE4FFFEFD7C40AB6FAADB
:10568C006EA96DA86C122F0CAB39AA38A937A836A5
:10569C00122F0CA804A905AA06AB07AF49AE48AD5A
:1056AC0047AC46122E17C004C005C006C007E4FF65
:1056BC00FEFD7C40AB6FAA6EA96DA86C122F0CABD3
:1056CC003DAA3CA93BA83A122F0CD003D002D00122
:1056DC00D000122E1BC004C005C006C007E4FFFE9C
:1056EC00FD7C40AB67AA66A965A864122F0CAB6F52
:1056FC00AA6EA96DA86C122F0CD003D002D001D0C9
:10570C0000122E1BC004C005C006C007E4FFFEFD3E
:10571C007C40AB6BAA6AA969A868122F0CAB6FAA64
:10572C006EA96DA86C122F0CA804A905AA06AB07CC
:10573C00D007D006D005D004122E17C004C005C067
:10574C0006C007E4FFFEFD7C40AB6FAA6EA96DA8F6
:10575C006C122F0CAB6FAA6EA96DA86C122F0CD00B
:10576C0003D002D001D000122E1B8F558E548D53B6
:10577C008C52AF51AE50AD4FAC4E126AD3C004C078
:10578C0005C006C007AF4DAE4CAD4BAC4A126AD348
:10579C00A804A905AA06AB07D007D006D005D004EB
:1057AC001230B24003025869AF55AE54AD53AC52EF
:1057BC00126AD3C004C005C006C007AF4DAE4CADD5
:1057CC004BAC4A126AD3A804A905AA06AB07D007AA
:1057DC00D006D005D0041230B2AF6FAE6EAD6DAC4A
:1057EC006C503C12607EAF39AE38AD37AC36AB6F17
:1057FC00AA6EA96DA86C122E178F398E388D378C26
:10580C0036854D49854C48854B47854A46AF45AE54
:10581C0044AD43AC42E4FBFA7980783F02591A124A
:10582C00607E125929AF3DAE3CAD3BAC3AAB6FAA92
:10583C006EA96DA86C122E1B8F3D8E3C8D3B8C3A45
:10584C00855549855448855347855246AF45AE44E6
:10585C00AD43AC42E4FBFAF9784002591AAF55AEAD
:10586C0054AD53AC52126AD3C004C005C006C00775
:10587C00AF51AE50AD4FAC4E126AD3A804A905AAD5
:10588C0006AB07D007D006D005D0041230B2AF6FEC
:10589C00AE6EAD6DAC6C503B12594CAF3DAE3CADE9
:1058AC003BAC3AAB6FAA6EA96DA86C122E1B8F3D48
:1058BC008E3C8D3B8C3A855149855048854F4785A8
:1058CC004E46AF45AE44AD43AC42E4FBFA7980782A
:1058DC003F803B12607E125929AF3DAE3CAD3BACD4
:1058EC003AAB6FAA6EA96DA86C122E1B8F3D8E3C25
:1058FC008D3B8C3A8555498554488553478552468E
:10590C00AF45AE44AD43AC42E4FBFAF97840122EFD
:0C591C001B8F458E448D438C4202555376
:01592800225C
:104FFA00AF25AE24AD23AC22AB6BAA6AA969A86817
:10500A00122E1B8F2D8E2C8D2B8C2AAB25AA24A910
:10501A0023A822AF67AE66AD65AC64122E178F3136
:10502A008E308D2F8C2E856B35856A348569338554
:0A503A006832AF67AE66AD65AC6486
:085044008F298E288D278C2690
:10504C008F398E388D378C36852D3D852C3C852BB4
:10505C003B852A3AE4F545F544F543F542F549F527
:10506C0048F547F546AB2DAA2CA92BA82AAF35AE8F
:10507C0034AD33AC32122E17126AD3C004C005C043
:10508C0006C007AB29AA28A927A826AF31AE30AD98
:10509C002FAC2E122E17126AD3D003D002D001D00F
:1050AC0000122E1BAB6FAA6EA96DA86C1230158F57
:1050BC00418E408D3F8C3EAF41AE40AD3FAC3EABE0
:1050CC0045AA44A943A8421230B24003025498E4C2
:1050DC00FFFEFD7C40AB6FAA6EA96DA86C122F0C65
:1050EC00AB39AA38A937A836122F0CA804A905AADF
:1050FC0006AB07AF49AE48AD47AC46122E17C004FD
:10510C00C005C006C007AF6FAE6EAD6DAC6CAB6FBB
:10511C00AA6EA96DA86C122F0CD003D002D001D0AE
:10512C0000122E1BC004C005C006C007E4FFFEFD24
:10513C007C40AB67AA66A965A864122F0CAB6FAA5A
:10514C006EA96DA86C122F0CD003D002D001D00028
:10515C00122E1B8F4D8E4C8D4B8C4AE4FFFEFD7C2A
:10516C0040AB6FAA6EA96DA86C122F0CAB3DAA3C7C
:10517C00A93BA83A122F0CA804A905AA06AB07AFA5
:10518C0049AE48AD47AC46122E17C004C005C00648
:10519C00C007AF6FAE6EAD6DAC6CAB6FAA6EA96D88
:1051AC00A86C122F0CD003D002D001D000122E1BF1
:1051BC00C004C005C006C007E4FFFEFD7C40AB6B1D
:1051CC00AA6AA969A868122F0CAB6FAA6EA96DA860
:1051DC006C122F0CD003D002D001D000122E1B8FDA
:1051EC00518E508D4F8C4EE4FFFEFD7C40AB6FAA70
:1051FC006EA96DA86C122F0CAB39AA38A937A8363A
:10520C00122F0CA804A905AA06AB07AF49AE48ADEE
:10521C0047AC46122E17C004C005C006C007E4FFF9
:10522C00FEFD7C40AB6FAA6EA96DA86C122F0CAB67
:10523C003DAA3CA93BA83A122F0CA804A905AA0622
:10524C00AB07D007D006D005D004122E17C004C06F
:10525C0005C006C007E4FFFEFD7C40AB67AA66A94B
:10526C0065A864122F0CAB6FAA6EA96DA86C122FD7
:10527C000CD003D002D001D000122E1BC004C005EC
:10528C00C006C007E4FFFEFD7C40AB6BAA6AA969AF
:10529C00A868122F0CAB6FAA6EA96DA86C122F0CFC
:1052AC00D003D002D001D000122E1BC004C005C008
:1052BC0006C007E4FFFEFD7C40AB6FAA6EA96DA88B
:1052CC006C122F0CAB6FAA6EA96DA86C122F0CD0A0
:1052DC0003D002D001D000122E1B8F558E548D534B
:1052EC008C52AF51AE50AD4FAC4E126AD3C004C00D
:1052FC0005C006C007AF4DAE4CAD4BAC4A126AD3DD
:10530C00A804A905AA06AB07D007D006D005D0047F
:10531C001230B240030253D9AF55AE54AD53AC5218
:10532C00126AD3C004C005C006C007AF4DAE4CAD69
:10533C004BAC4A126AD3A804A905AA06AB07D0073E
:10534C00D006D005D0041230B2AF6FAE6EAD6DACDE
:10535C006C503C12607EAF39AE38AD37AC36AB6FAB
:10536C00AA6EA96DA86C122E178F398E388D378CBA
:10537C0036854D49854C48854B47854A46AF45AEE9
:10538C0044AD43AC42E4FBFA7980783F02548A1274
:10539C00607E125BA3AF3DAE3CAD3BAC3AAB6FAAAB
:1053AC006EA96DA86C122E178F3D8E3C8D3B8C3ADE
:1053BC00855549855448855347855246AF45AE447B
:1053CC00AD43AC42E4FBFAF9784002548AAF55AED7
:1053DC0054AD53AC52126AD3C004C005C006C0070A
:1053EC00AF51AE50AD4FAC4E126AD3A804A905AA6A
:1053FC0006AB07D007D006D005D0041230B2AF6F81
:10540C00AE6EAD6DAC6C503B125BC6AF3DAE3CAD01
:10541C003BAC3AAB6FAA6EA96DA86C122E178F3DE0
:10542C008E3C8D3B8C3A855149855048854F47853C
:10543C004E46AF45AE44AD43AC42E4FBFA798078BE
:10544C003F803B12607E125BA3AF3DAE3CAD3BACEC
:10545C003AAB6FAA6EA96DA86C122E178F3D8E3CBD
:10546C008D3B8C3A85554985544885534785524622
:10547C00AF45AE44AD43AC42E4FBFAF97840122E92
:0C548C001B8F458E448D438C420250C3A0
:0154980022F1
:1041A80085612D85602C855F2B855E2A8567318525
:1041B800663085652F85642EAB25AA24A923A822FD
:1041C800AF6BAE6AAD69AC68122E178F358E348D21
:0B41D800338C32AF5DAE5CAD5BAC5AC7
:0841E3008F298E288D278C2600
:1041EB008F398E388D378C36852D3D852C3C852B24
:1041FB003B852A3AE4F545F544F543F542F549F597
:10420B0048F547F546AB2DAA2CA92BA82AAF35AEFE
:10421B0034AD33AC32122E17126AD3C004C005C0B2
:10422B0006C007AB29AA28A927A826AF31AE30AD07
:10423B002FAC2E122E17126AD3D003D002D001D07E
:10424B0000122E1BAB6FAA6EA96DA86C1230158FC6
:10425B00418E408D3F8C3EAF41AE40AD3FAC3EAB4F
:10426B0045AA44A943A8421230B2400302466DE46A
:10427B00FFFEFD7C40AB6FAA6EA96DA86C122F0CD4
:10428B00AB39AA38A937A836122F0CAB49AA48A9C3
:10429B0047A846122E1BC004C005C006C007AF6F4F
:1042AB00AE6EAD6DAC6CAB6FAA6EA96DA86C122F18
:1042BB000CD003D002D001D000122E1BC004C005BD
:1042CB00C006C007E4FFFEFD7C40AB67AA66A9658C
:1042DB00A864122F0CAB6FAA6EA96DA86C122F0CD1
:1042EB00A804A905AA06AB07D007D006D005D004B1
:1042FB00122E178F4D8E4C8D4B8C4AE4FFFEFD7C9E
:10430B0040AB6FAA6EA96DA86C122F0CAB3DAA3CEB
:10431B00A93BA83A122F0CA804A905AA06AB07AF14
:10432B0049AE48AD47AC46122E17C004C005C006B7
:10433B00C007AF6FAE6EAD6DAC6CAB6FAA6EA96DF7
:10434B00A86C122F0CD003D002D001D000122E1B60
:10435B00C004C005C006C007E4FFFEFD7C40AB6B8C
:10436B00AA6AA969A868122F0CAB6FAA6EA96DA8CF
:10437B006C122F0CD003D002D001D000122E1B8F49
:10438B00518E508D4F8C4EE4FFFEFD7C40AB6FAADF
:10439B006EA96DA86C122F0CAB39AA38A937A836A9
:1043AB00122F0CAB49AA48A947A846122E1BC004D2
:1043BB00C005C006C007E4FFFEFD7C40AB6FAA6ED4
:1043CB00A96DA86C122F0CAB3DAA3CA93BA83A12C5
:1043DB002F0CA804A905AA06AB07D007D006D00559
:1043EB00D004122E17C004C005C006C007E4FFFEA0
:1043FB00FD7C40AB67AA66A965A864122F0CAB6F56
:10440B00AA6EA96DA86C122F0CA804A905AA06AB5D
:10441B0007D007D006D005D004122E17C004C00554
:10442B00C006C007E4FFFEFD7C40AB6BAA6AA9691E
:10443B00A868122F0CAB6FAA6EA96DA86C122F0C6B
:10444B00D003D002D001D000122E1BC004C005C077
:10445B0006C007E4FFFEFD7C40AB6FAA6EA96DA8FA
:10446B006C122F0CAB6FAA6EA96DA86C122F0CD00F
:10447B0003D002D001D000122E1B8F558E548D53BA
:10448B008C52AF51AE50AD4FAC4E126AD3C004C07C
:10449B0005C006C007AF4DAE4CAD4BAC4A126AD34C
:1044AB00A804A905AA06AB07D007D006D005D004EF
:1044BB001230B24003024593AF55AE54AD53AC52DC
:1044CB00126AD3C004C005C006C007AF4DAE4CADD9
:1044DB004BAC4A126AD3A804A905AA06AB07D007AE
:1044EB00D006D005D0041230B2AF6FAE6EAD6DAC4E
:1044FB006C503C125E25AF39AE38AD37AC36AB6F76
:10450B00AA6EA96DA86C122E1B8F398E388D378C25
:10451B0036854D49854C48854B47854A46AF45AE58
:10452B0044AD43AC42E4FBFA7980783F02465F121C
:10453B005E25AF39AE38AD37AC36AB6FAA6EA96D11
:10454B00A86C122E1B8F398E388D378C36125BBEB2
:10455B00AF3DAE3CAD3BAC3AAB6FAA6EA96DA86C50
:10456B00122E178F3D8E3C8D3B8C3A8555498554C9
:10457B0048855347855246AF45AE44AD43AC42E404
:10458B00FBFAF9784002465FAF55AE54AD53AC52CF
:10459B00126AD3C004C005C006C007AF51AE50AD00
:1045AB004FAC4E126AD3A804A905AA06AB07D007D5
:1045BB00D006D005D0041230B2AF6FAE6EAD6DAC7D
:1045CB006C503B125BC6AF3DAE3CAD3BAC3AAB6FF8
:1045DB00AA6EA96DA86C122E178F3D8E3C8D3B8C4D
:1045EB003A855149855048854F47854E46AF45AE74
:1045FB0044AD43AC42E4FBFA7980783F8056125EBF
:10460B0025AF39AE38AD37AC36AB6FAA6EA96DA8F6
:10461B006C122E1B8F398E388D378C36125BBEAFDA
:10462B003DAE3CAD3BAC3AAB6FAA6EA96DA86C121C
:10463B002E178F3D8E3C8D3B8C3A855549855448C2
:10464B00855347855246AF45AE44AD43AC42E4FB80
:10465B00FAF97840122E1B8F458E448D438C420203
:02466B004262A9
:01466D00222A
:10332900AB25AA24A923A822AF6BAE6AAD69AC6804
:10333900122E178F2D8E2C8D2B8C2AAF25AE24ADF6
:1033490023AC22AB67AA66A965A864122E1B8F312C
:103359008E308D2F8C2E856B35856A348569338542
:0A3369006832AF67AE66AD65AC6474
:083373008F298E288D278C267E
:10337B008F398E388D378C36852D3D852C3C852BA2
:10338B003B852A3AE4F545F544F543F542F549F515
:10339B0048F547F546AB2DAA2CA92BA82AAF35AE7D
:1033AB0034AD33AC32122E17126AD3C004C005C031
:1033BB0006C007AB29AA28A927A826AF31AE30AD86
:1033CB002FAC2E122E17126AD3D003D002D001D0FD
:1033DB0000122E1BAB6FAA6EA96DA86C1230158F45
:1033EB00418E408D3F8C3EAF41AE40AD3FAC3EABCE
:1033FB0045AA44A943A8421230B240030237FDE468
:10340B00FFFEFD7C40AB6FAA6EA96DA86C122F0C52
:10341B00AB39AA38A937A836122F0CAB49AA48A941
:10342B0047A846122E1BC004C005C006C007AF6FCD
:10343B00AE6EAD6DAC6CAB6FAA6EA96DA86C122F96
:10344B000CD003D002D001D000122E1BC004C0053B
:10345B00C006C007E4FFFEFD7C40AB67AA66A9650A
:10346B00A864122F0CAB6FAA6EA96DA86C122F0C4F
:10347B00A804A905AA06AB07D007D006D005D0042F
:10348B00122E178F4D8E4C8D4B8C4AE4FFFEFD7C1C
:10349B0040AB6FAA6EA96DA86C122F0CAB3DAA3C6A
:1034AB00A93BA83A122F0CAB49AA48A947A8461228
:1034BB002E1BC004C005C006C007AF6FAE6EAD6D4E
:1034CB00AC6CAB6FAA6EA96DA86C122F0CD003D08D
:1034DB0002D001D000122E1BC004C005C006C007CD
:1034EB00E4FFFEFD7C40AB6BAA6AA969A868122FAA
:1034FB000CAB6FAA6EA96DA86C122F0CA804A905B2
:10350B00AA06AB07D007D006D005D004122E178F12
:10351B00518E508D4F8C4EE4FFFEFD7C40AB6FAA5D
:10352B006EA96DA86C122F0CAB39AA38A937A83627
:10353B00122F0CAB49AA48A947A846122E1BC00450
:10354B00C005C006C007E4FFFEFD7C40AB6FAA6E52
:10355B00A96DA86C122F0CAB3DAA3CA93BA83A1243
:10356B002F0CD003D002D001D000122E1BC004C0F0
:10357B0005C006C007E4FFFEFD7C40AB67AA66A949
:10358B0065A864122F0CAB6FAA6EA96DA86C122FD5
:10359B000CA804A905AA06AB07D007D006D005D006
:1035AB0004122E17C004C005C006C007E4FFFEFDC1
:1035BB007C40AB6BAA6AA969A868122F0CAB6FAAE7
:1035CB006EA96DA86C122F0CA804A905AA06AB074F
:1035DB00D007D006D005D004122E17C004C005C0EA
:1035EB0006C007E4FFFEFD7C40AB6FAA6EA96DA879
:1035FB006C122F0CAB6FAA6EA96DA86C122F0CD08E
:10360B0003D002D001D000122E1B8F558E548D5338
:10361B008C52AF51AE50AD4FAC4E126AD3C004C0FA
:10362B0005C006C007AF4DAE4CAD4BAC4A126AD3CA
:10363B00A804A905AA06AB07D007D006D005D0046D
:10364B001230B24003023723AF55AE54AD53AC52D8
:10365B00126AD3C004C005C006C007AF4DAE4CAD57
:10366B004BAC4A126AD3A804A905AA06AB07D0072C
:10367B00D006D005D0041230B2AF6FAE6EAD6DACCC
:10368B006C503C125E25AF39AE38AD37AC36AB6FF4
:10369B00AA6EA96DA86C122E1B8F398E388D378CA4
:1036AB0036854D49854C48854B47854A46AF45AED7
:1036BB0044AD43AC42E4FBFA7980783F0237EF121A
:1036CB005E25AF39AE38AD37AC36AB6FAA6EA96D90
:1036DB00A86C122E1B8F398E388D378C36125944AD
:1036EB00AF3DAE3CAD3BAC3AAB6FAA6EA96DA86CCF
:1036FB00122E1B8F3D8E3C8D3B8C3A855549855444
:10370B0048855347855246AF45AE44AD43AC42E482
:10371B00FBFAF978400237EFAF55AE54AD53AC52CC
:10372B00126AD3C004C005C006C007AF51AE50AD7E
:10373B004FAC4E126AD3A804A905AA06AB07D00753
:10374B00D006D005D0041230B2AF6FAE6EAD6DACFB
:10375B006C503B12594CAF3DAE3CAD3BAC3AAB6FF2
:10376B00AA6EA96DA86C122E1B8F3D8E3C8D3B8CC7
:10377B003A855149855048854F47854E46AF45AEF2
:10378B0044AD43AC42E4FBFA7980783F8056125E3D
:10379B0025AF39AE38AD37AC36AB6FAA6EA96DA875
:1037AB006C122E1B8F398E388D378C36125944AFD5
:1037BB003DAE3CAD3BAC3AAB6FAA6EA96DA86C129B
:1037CB002E1B8F3D8E3C8D3B8C3A8555498554483D
:1037DB00855347855246AF45AE44AD43AC42E4FBFF
:1037EB00FAF97840122E1B8F458E448D438C420282
:0237FB0033F2A7
:0137FD0022A9
:080003008F1D8E1C8D1B8C1A51
:10000B00AB6BAA6AA969A868AF61AE60AD5FAC5E65
:10001B00122E17C004C005C006C007AB6BAA6AA995
:10002B0069A868AF61AE60AD5FAC5E122E17D003EE
:10003B00D002D001D000122F0CC004C005C006C0E6
:10004B0007AB67AA66A965A864AF5DAE5CAD5BAC98
:10005B005A122E17C004C005C006C007AB67AA66AC
:10006B00A965A864AF5DAE5CAD5BAC5A122E17D020
:10007B0003D002D001D000122F0CD003D002D0013C
:10008B00D000122E1B1267908F258E248D238C226D
:10009B00AF67AE66AD65AC64AB5DAA5CA95BA85AF5
:1000AB001230B2600250030203D1AF6BAE6AAD697E
:1000BB00AC68AB61AA60A95FA85E1230B2500302B4
:1000CB0003D1AF67AE66AD65AC64AB1DAA1CA91BB3
:1000DB00A81A1230B25003020239AF6BAE6AAD6987
:1000EB00AC68AB21AA20A91FA81E1230B260025027
:1000FB0003020239AF5DAE5CAD5BAC5AAB1DAA1C03
:10010B00A91BA81A1230B250030201E3AF5DAE5C1B
:10011B00AD5BAC5AAB1DAA1CA91BA81A1230B2704E
:10012B00030210E5AF61AE60AD5FAC5EAB21AA2000
:10013B00A91FA81E1230B240030210E512549912E7
:10014B004FFAAB25AA24A923A822AF67AE66AD65EB
:10015B00AC64122E17C004C005C006C007856B2DFA
:10016B00856A2C85692B85682A856731856630857C
:10017B00652F85642EAB25AA24A923A822AF6BAECD
:10018B006AAD69AC68122E178F358E348D338C3275
:10019B00D007D006D005D0041241E3123329AF2586
:1001AB00AE24AD23AC22AB67AA66A965A864122E58
:1001BB001B856B2D856A2C85692B85682A851D31DE
:1001CB00851C30851B2F851A2E852135852034857E
:1001DB001F33851E321254D4AF5DAE5CAD5BAC5A8F
:1001EB00AB1DAA1CA91BA81A1230B25041AF61AEAD
:1001FB0060AD5FAC5EAB21AA20A91FA81E1230B266
:10020B00600250030210E585612D85602C855F2B04
:10021B00855E2A851D31851C30851B2F851A2E8501
:10022B002135852034851F33851E321254CCAF67A0
:10023B00AE66AD65AC64AB1DAA1CA91BA81A123027
:10024B00B2504EAF6BAE6AAD69AC68AB21AA20A9B8
:10025B001FA81E1230B24039125499AF25AE24ADEF
:10026B0023AC22AB6BAA6AA969A868122E1B8F2D2F
:10027B008E2C8D2B8C2A851D31851C30851B2F8553
:10028B001A2E852135852034851F33851E32125059
:10029B003CAF67AE66AD65AC64AB1DAA1CA91BA8D1
:1002AB001A1230B260025055AF6BAE6AAD69AC68D2
:1002BB00AB21AA20A91FA81E1230B250401254998C
:1002CB00124FFAAB25AA24A923A822AF67AE66ADBD
:1002DB0065AC64122E17856B2D856A2C85692B8571
:1002EB00682A851D31851C30851B2F851A2E85218B
:1002FB0035852034851F33851E321241E3AF67AE3F
:10030B0066AD65AC64AB1DAA1CA91BA81A1230B252
:10031B00600250030203D1AF6BAE6AAD69AC68AB40
:10032B0021AA20A91FA81E1230B2600540030203A8
:10033B00D1125499124FFAAB25AA24A923A822AFA4
:10034B0067AE66AD65AC64122E17C004C005C0065F
:10035B00C007856B2D856A2C85692B85682A856777
:10036B003185663085652F85642EAB25AA24A9239C
:10037B00A822AF6BAE6AAD69AC68122E178F358EA3
:10038B00348D338C32D007D006D005D0041241E324
:10039B00AB25AA24A923A822AF6BAE6AAD69AC68C2
:1003AB00122E178F2D8E2C8D2B8C2A851D31851C93
:1003BB0030851B2F851A2E852135852034851F33DB
:1003CB00851E3212336BAF67AE66AD65AC64AB5D49
:1003DB00AA5CA95BA85A1230B2600540030208B2AE
:1003EB00AF6BAE6AAD69AC68AB61AA60A95FA85E82
:1003FB001230B2600250030208B2AF67AE66AD6551
:10040B00AC64AB1DAA1CA91BA81A1230B240030284
:10041B000604AF6BAE6AAD69AC68AB21AA20A91F0D
:10042B00A81E1230B25003020604AF61AE60AD5F7E
:10043B00AC5EAB21AA20A91FA81E1230B25003023A
:10044B0005A8AF61AE60AD5FAC5EAB21AA20A91F62
:10045B00A81E1230B270030210E5AF5DAE5CAD5B4F
:10046B00AC5AAB1DAA1CA91BA81A1230B2600250C1
:10047B00030210E585612D85602C855F2B855E2A37
:10048B00AB25AA24A923A822AF67AE66AD65AC64E1
:10049B00122E178F318E308D2F8C2E856B35856AF2
:1004AB0034856933856832AF5DAE5CAD5BAC5A1297
:1004BB005044AB25AA24A923A822AF67AE66AD652D
:1004CB00AC64122E17C004C005C006C007856B2D87
:1004DB00856A2C85692B85682A8567318566308509
:1004EB00652F85642EAB25AA24A923A822AF6BAE5A
:1004FB006AAD69AC68122E178F358E348D338C3202
:10050B00D007D006D005D0041241E3123329AF2512
:10051B00AE24AD23AC22AB67AA66A965A864122EE4
:10052B001BC004C005C006C007856B2D856A2C85D2
:10053B00692B85682A85673185663085652F8564CB
:10054B002EAF25AE24AD23AC22AB6BAA6AA969A84A
:10055B0068122E1B8F358E348D338C32D007D0061C
:10056B00D005D0041254D4AF25AE24AD23AC22ABAE
:10057B006BAA6AA969A868122E1B8F2D8E2C8D2B46
:10058B008C2A851D31851C30851B2F851A2E8521C4
:10059B0035852034851F33851E3212503CAF61AE3A
:1005AB0060AD5FAC5EAB21AA20A91FA81E1230B2B2
:1005BB005047AF5DAE5CAD5BAC5AAB1DAA1CA91B23
:1005CB00A81A1230B240030210E585612D85602C0C
:1005DB00855F2B855E2A851D31851C30851B2F85FC
:1005EB001A2E852135852034851F33851E32AF5D4C
:1005FB00AE5CAD5BAC5A125044AF67AE66AD65AC4A
:10060B0064AB1DAA1CA91BA81A1230B260054003CB
:10061B000206ABAF6BAE6AAD69AC68AB21AA20A981
:10062B001FA81E1230B2507885612D85602C855F16
:10063B002B855E2AAB25AA24A923A822AF67AE6619
:10064B00AD65AC64122E178F318E308D2F8C2E85AD
:10065B006B35856A34856933856832AF5DAE5CADC9
:10066B005BAC5A125044AB25AA24A923A822AF672E
:10067B00AE66AD65AC64122E17856B2D856A2C8525
:10068B00692B85682A851D31851C30851B2F851AA2
:10069B002E852135852034851F33851E321241E38B
:1006AB00AF67AE66AD65AC64AB1DAA1CA91BA81ADF
:1006BB001230B2600250030207ACAF6BAE6AAD6989
:1006CB00AC68AB21AA20A91FA81E1230B26005404E
:1006DB00030207AC85612D85602C855F2B855E2A17
:1006EB00AB25AA24A923A822AF67AE66AD65AC647F
:1006FB00122E178F318E308D2F8C2E856B35856A90
:10070B0034856933856832AF5DAE5CAD5BAC5A1234
:10071B005044AB25AA24A923A822AF67AE66AD65CA
:10072B00AC64122E17C004C005C006C007856B2D24
:10073B00856A2C85692B85682A85673185663085A6
:10074B00652F85642EAB25AA24A923A822AF6BAEF7
:10075B006AAD69AC68122E178F358E348D338C329F
:10076B00D007D006D005D0041241E3AB25AA24A9AB
:10077B0023A822AF6BAE6AAD69AC68122E178F2D12
:10078B008E2C8D2B8C2A851D31851C30851B2F853E
:10079B001A2E852135852034851F33851E32123361
:1007AB006BAF67AE66AD65AC64AB1DAA1CA91BA88D
:1007BB001A1230B250030208B2AF6BAE6AAD69AC1D
:1007CB0068AB21AA20A91FA81E1230B260025003E9
:1007DB000208B285612D85602C855F2B855E2AAB67
:1007EB0025AA24A923A822AF67AE66AD65AC641217
:1007FB002E178F318E308D2F8C2E856B35856A346D
:10080B00856933856832AF5DAE5CAD5BAC5A125017
:10081B0044AB25AA24A923A822AF67AE66AD65AC6D
:10082B0064122E17C004C005C006C007856B2D854A
:10083B006A2C85692B85682A8567318566308565C5
:10084B002F85642EAB25AA24A923A822AF6BAE6AF1
:10085B00AD69AC68122E178F358E348D338C32D038
:10086B0007D006D005D0041241E3123329AF25AED1
:10087B0024AD23AC22AB67AA66A965A864122E1B14
:10088B00856B2D856A2C85692B85682A851D31859D
:10089B001C30851B2F851A2E852135852034851F0D
:1008AB0033851E321254D4AF67AE66AD65AC64AB04
:1008BB005DAA5CA95BA85A1230B24003020BECAFE5
:1008CB006BAE6AAD69AC68AB61AA60A95FA85E123A
:1008DB0030B260054003020BECAF67AE66AD65ACA2
:1008EB0064AB1DAA1CA91BA81A1230B260054003E9
:1008FB00020A54AF6BAE6AAD69AC68AB21AA20A9F2
:10090B001FA81E1230B24003020A54AF5DAE5CAD9D
:10091B005BAC5AAB1DAA1CA91BA81A1230B26005FE
:10092B0040030209FEAF5DAE5CAD5BAC5AAB1DAADA
:10093B001CA91BA81A1230B270030210E5AF61AEEE
:10094B0060AD5FAC5EAB21AA20A91FA81E1230B20E
:10095B00600250030210E51241A8123329AF25AEF5
:10096B0024AD23AC22AB67AA66A965A864122E1B23
:10097B00C004C005C006C007856B2D856A2C856930
:10098B002B85682A85673185663085652F85642EB2
:10099B00AF25AE24AD23AC22AB6BAA6AA969A868BC
:1009AB00122E1B8F358E348D338C32D007D006D060
:1009BB0005D0041254D4124FFAAB25AA24A923A8AC
:1009CB0022AF67AE66AD65AC64122E17856B2D85B5
:1009DB006A2C85692B85682A851D31851C30851B02
:1009EB002F851A2E852135852034851F33851E32A0
:1009FB001241E3AF5DAE5CAD5BAC5AAB1DAA1CA95B
:100A0B001BA81A1230B26041403FAF61AE60AD5FC0
:100A1B00AC5EAB21AA20A91FA81E1230B240030264
:100A2B0010E585612D85602C855F2B855E2A851DE4
:100A3B0031851C30851B2F851A2E85213585203459
:100A4B00851F33851E321241DBAF67AE66AD65ACD9
:100A5B0064AB1DAA1CA91BA81A1230B260524050DD
:100A6B00AF6BAE6AAD69AC68AB21AA20A91FA81EFB
:100A7B001230B2600250391241A8AB25AA24A92327
:100A8B00A822AF6BAE6AAD69AC68122E178F2D8E94
:100A9B002C8D2B8C2A851D31851C30851B2F851A9F
:100AAB002E852135852034851F33851E3212336BFD
:100ABB00AF67AE66AD65AC64AB1DAA1CA91BA81ACB
:100ACB001230B24057AF6BAE6AAD69AC68AB21AABE
:100ADB0020A91FA81E1230B2604240401241A8123A
:100AEB003329AF25AE24AD23AC22AB67AA66A9652B
:100AFB00A864122E1B856B2D856A2C85692B856846
:100B0B002A851D31851C30851B2F851A2E85213595
:100B1B00852034851F33851E321254D4AF67AE66E1
:100B2B00AD65AC64AB1DAA1CA91BA81A1230B24050
:100B3B0003020BECAF6BAE6AAD69AC68AB21AA20BC
:100B4B00A91FA81E1230B25003020BEC1241A812BF
:100B5B003329AF25AE24AD23AC22AB67AA66A965BA
:100B6B00A864122E1BC004C005C006C007856B2DE0
:100B7B00856A2C85692B85682A8567318566308562
:100B8B00652F85642EAF25AE24AD23AC22AB6BAAAB
:100B9B006AA969A868122E1B8F358E348D338C325F
:100BAB00D007D006D005D0041254D4AF25AE24AD57
:100BBB0023AC22AB6BAA6AA969A868122E1B8F2DD6
:100BCB008E2C8D2B8C2A851D31851C30851B2F85FA
:100BDB001A2E852135852034851F33851E32125000
:100BEB003CAF67AE66AD65AC64AB5DAA5CA95BA8B8
:100BFB005A1230B250030210CDAF6BAE6AAD69AC76
:100C0B0068AB61AA60A95FA85E1230B24003021004
:100C1B00CDAF67AE66AD65AC64AB1DAA1CA91BA8B6
:100C2B001A1230B260025003020E23AF6BAE6AADE4
:100C3B0069AC68AB21AA20A91FA81E1230B26005AF
:100C4B004003020E23AF61AE60AD5FAC5EAB21AA79
:100C5B0020A91FA81E1230B260054003020DC3AFBE
:100C6B0061AE60AD5FAC5EAB21AA20A91FA81E12BE
:100C7B0030B270030210E5AF5DAE5CAD5BAC5AAB4E
:100C8B001DAA1CA91BA81A1230B240030210E5853D
:100C9B00612D85602C855F2B855E2AAF25AE24AD3B
:100CAB0023AC22AB67AA66A965A864122E1B8F31F1
:100CBB008E308D2F8C2E856B35856A348569338507
:100CCB006832AF5DAE5CAD5BAC5A123373AF25AE21
:100CDB0024AD23AC22AB67AA66A965A864122E1BB0
:100CEB00C004C005C006C007856B2D856A2C8569BD
:100CFB002B85682A85673185663085652F85642E3F
:100D0B00AF25AE24AD23AC22AB6BAA6AA969A86848
:100D1B00122E1B8F358E348D338C32D007D006D0EC
:100D2B0005D0041254D4124FFAAB25AA24A923A838
:100D3B0022AF67AE66AD65AC64122E17C004C0055A
:100D4B00C006C007856B2D856A2C85692B85682AA3
:100D5B0085673185663085652F85642EAB25AA2482
:100D6B00A923A822AF6BAE6AAD69AC68122E178FA0
:100D7B00358E348D338C32D007D006D005D004128B
:100D8B0041E3AB25AA24A923A822AF6BAE6AAD69B8
:100D9B00AC68122E178F2D8E2C8D2B8C2A851D3126
:100DAB00851C30851B2F851A2E8521358520348592
:100DBB001F33851E3212336BAF61AE60AD5FAC5E1D
:100DCB00AB21AA20A91FA81E1230B2604B4049AF1D
:100DDB005DAE5CAD5BAC5AAB1DAA1CA91BA81A126D
:100DEB0030B2600250030210E585612D85602C85C1
:100DFB005F2B855E2A851D31851C30851B2F851A3F
:100E0B002E852135852034851F33851E32AF5DAE8F
:100E1B005CAD5BAC5A123373AF67AE66AD65AC6459
:100E2B00AB1DAA1CA91BA81A1230B25003020ECA82
:100E3B00AF6BAE6AAD69AC68AB21AA20A91FA81E27
:100E4B001230B2607A407885612D85602C855F2BDE
:100E5B00855E2AAF25AE24AD23AC22AB67AA66A96B
:100E6B0065A864122E1B8F318E308D2F8C2E856BC7
:100E7B0035856A34856933856832AF5DAE5CAD5BB1
:100E8B00AC5A123373AF25AE24AD23AC22AB67AA99
:100E9B0066A965A864122E1B856B2D856A2C856946
:100EAB002B85682A851D31851C30851B2F851A2EB5
:100EBB00852135852034851F33851E321254D4AFDE
:100ECB0067AE66AD65AC64AB1DAA1CA91BA81A1254
:100EDB0030B24003020FC7AF6BAE6AAD69AC68AB03
:100EEB0021AA20A91FA81E1230B25003020FC785DA
:100EFB00612D85602C855F2B855E2AAF25AE24ADD9
:100F0B0023AC22AB67AA66A965A864122E1B8F318E
:100F1B008E308D2F8C2E856B35856A3485693385A4
:100F2B006832AF5DAE5CAD5BAC5A123373AF25AEBE
:100F3B0024AD23AC22AB67AA66A965A864122E1B4D
:100F4B00C004C005C006C007856B2D856A2C85695A
:100F5B002B85682A85673185663085652F85642EDC
:100F6B00AF25AE24AD23AC22AB6BAA6AA969A868E6
:100F7B00122E1B8F358E348D338C32D007D006D08A
:100F8B0005D0041254D4AF25AE24AD23AC22AB6BE9
:100F9B00AA6AA969A868122E1B8F2D8E2C8D2B8CFB
:100FAB002A851D31851C30851B2F851A2E852135F1
:100FBB00852034851F33851E3212503CAF67AE66D9
:100FCB00AD65AC64AB1DAA1CA91BA81A1230B2608C
:100FDB000540030210CDAF6BAE6AAD69AC68AB21B7
:100FEB00AA20A91FA81E1230B240030210CD8561A2
:100FFB002D85602C855F2B855E2AAF25AE24AD2316
:10100B00AC22AB67AA66A965A864122E1B8F318E22
:10101B00308D2F8C2E856B35856A348569338568C9
:10102B0032AF5DAE5CAD5BAC5A123373AF25AE2401
:10103B00AD23AC22AB67AA66A965A864122E1BC0B0
:10104B0004C005C006C007856B2D856A2C85692BEE
:10105B0085682A85673185663085652F85642EAF57
:10106B0025AE24AD23AC22AB6BAA6AA969A8681282
:10107B002E1B8F358E348D338C32D007D006D00596
:10108B00D0041254D4124FFAAB25AA24A923A822B8
:10109B00AF67AE66AD65AC64122E17856B2D856A96
:1010AB002C85692B85682A851D31851C30851B2F66
:1010BB00851A2E852135852034851F33851E3212E6
:1010CB0041E3851D5D851C5C851B5B851A5A85215B
:0A10DB0061852060851F5F851E5EA1
:0110E50022E8
:1037FE00AF25AE24AD23AC22AB6BAA6AA969A8682B
:10380E00122E1B8F2D8E2C8D2B8C2AAF25AE24AD18
:10381E0023AC22AB67AA66A965A864122E1B8F3152
:10382E008E308D2F8C2E856B35856A348569338568
:0A383E006832AF67AE66AD65AC649A
:083848008F298E288D278C26A4
:103850008F398E388D378C36852D3D852C3C852BC8
:103860003B852A3AE4F545F544F543F542F549F53B
:1038700048F547F546AB2DAA2CA92BA82AAF35AEA3
:1038800034AD33AC32122E17126AD3C004C005C057
:1038900006C007AB29AA28A927A826AF31AE30ADAC
:1038A0002FAC2E122E17126AD3D003D002D001D023
:1038B00000122E1BAB6FAA6EA96DA86C1230158F6B
:1038C000418E408D3F8C3EAF41AE40AD3FAC3EABF4
:1038D00045AA44A943A8421230B24003023CD2E4B4
:1038E000FFFEFD7C40AB6FAA6EA96DA86C122F0C79
:1038F000AB39AA38A937A836122F0CAB49AA48A968
:1039000047A846122E1BC004C005C006C007AF6FF3
:10391000AE6EAD6DAC6CAB6FAA6EA96DA86C122FBC
:103920000CD003D002D001D000122E1BC004C00561
:10393000C006C007E4FFFEFD7C40AB67AA66A96530
:10394000A864122F0CAB6FAA6EA96DA86C122F0C75
:10395000A804A905AA06AB07D007D006D005D00455
:10396000122E178F4D8E4C8D4B8C4AE4FFFEFD7C42
:1039700040AB6FAA6EA96DA86C122F0CAB3DAA3C90
:10398000A93BA83A122F0CA804A905AA06AB07AFB9
:1039900049AE48AD47AC46122E17C004C005C0065C
:1039A000C007AF6FAE6EAD6DAC6CAB6FAA6EA96D9C
:1039B000A86C122F0CD003D002D001D000122E1B05
:1039C000C004C005C006C007E4FFFEFD7C40AB6B31
:1039D000AA6AA969A868122F0CAB6FAA6EA96DA874
:1039E0006C122F0CD003D002D001D000122E1B8FEE
:1039F000518E508D4F8C4EE4FFFEFD7C40AB6FAA84
:103A00006EA96DA86C122F0CAB39AA38A937A8364D
:103A1000122F0CAB49AA48A947A846122E1BC00476
:103A2000C005C006C007E4FFFEFD7C40AB6FAA6E78
:103A3000A96DA86C122F0CAB3DAA3CA93BA83A1269
:103A40002F0CA804A905AA06AB07D007D006D005FD
:103A5000D004122E17C004C005C006C007E4FFFE44
:103A6000FD7C40AB67AA66A965A864122F0CAB6FFA
:103A7000AA6EA96DA86C122F0CA804A905AA06AB02
:103A800007D007D006D005D004122E17C004C005F9
:103A9000C006C007E4FFFEFD7C40AB6BAA6AA969C3
:103AA000A868122F0CAB6FAA6EA96DA86C122F0C10
:103AB000D003D002D001D000122E1BC004C005C01C
:103AC00006C007E4FFFEFD7C40AB6FAA6EA96DA89F
:103AD0006C122F0CAB6FAA6EA96DA86C122F0CD0B4
:103AE00003D002D001D000122E1B8F558E548D535F
:103AF0008C52AF51AE50AD4FAC4E126AD3C004C021
:103B000005C006C007AF4DAE4CAD4BAC4A126AD3F0
:103B1000A804A905AA06AB07D007D006D005D00493
:103B20001230B24003023BF8AF55AE54AD53AC5225
:103B3000126AD3C004C005C006C007AF4DAE4CAD7D
:103B40004BAC4A126AD3A804A905AA06AB07D00752
:103B5000D006D005D0041230B2AF6FAE6EAD6DACF2
:103B60006C503C125E25AF39AE38AD37AC36AB6F1A
:103B7000AA6EA96DA86C122E1B8F398E388D378CCA
:103B800036854D49854C48854B47854A46AF45AEFD
:103B900044AD43AC42E4FBFA7980783F023CC41266
:103BA0005E25AF39AE38AD37AC36AB6FAA6EA96DB6
:103BB000A86C122E1B8F398E388D378C36125BBE57
:103BC000AF3DAE3CAD3BAC3AAB6FAA6EA96DA86CF5
:103BD000122E178F3D8E3C8D3B8C3A85554985546E
:103BE00048855347855246AF45AE44AD43AC42E4A9
:103BF000FBFAF97840023CC4AF55AE54AD53AC5219
:103C0000126AD3C004C005C006C007AF51AE50ADA4
:103C10004FAC4E126AD3A804A905AA06AB07D00779
:103C2000D006D005D0041230B2AF6FAE6EAD6DAC21
:103C30006C503B125BC6AF3DAE3CAD3BAC3AAB6F9C
:103C4000AA6EA96DA86C122E178F3D8E3C8D3B8CF1
:103C50003A855149855048854F47854E46AF45AE18
:103C600044AD43AC42E4FBFA7980783F8056125E63
:103C700025AF39AE38AD37AC36AB6FAA6EA96DA89B
:103C80006C122E1B8F398E388D378C36125BBEAF7F
:103C90003DAE3CAD3BAC3AAB6FAA6EA96DA86C12C1
:103CA0002E178F3D8E3C8D3B8C3A85554985544867
:103CB000855347855246AF45AE44AD43AC42E4FB25
:103CC000FAF97840122E1B8F458E448D438C4202A8
:023CD00038C7F3
:013CD20022CF
:10466E0085612D85602C855F2B855E2A856731855A
:10467E00663085652F85642EAF25AE24AD23AC2222
:10468E00AB6BAA6AA969A868122E1B8F358E348D62
:0B469E00338C32AF5DAE5CAD5BAC5AFC
:0846A9008F298E288D278C2635
:1046B1008F398E388D378C36852D3D852C3C852B59
:1046C1003B852A3AE4F545F544F543F542F549F5CC
:1046D10048F547F546AB2DAA2CA92BA82AAF35AE34
:1046E10034AD33AC32122E17126AD3C004C005C0E8
:1046F10006C007AB29AA28A927A826AF31AE30AD3D
:104701002FAC2E122E17126AD3D003D002D001D0B3
:1047110000122E1BAB6FAA6EA96DA86C1230158FFB
:10472100418E408D3F8C3EAF41AE40AD3FAC3EAB84
:1047310045AA44A943A8421230B24003024B33E4D4
:10474100FFFEFD7C40AB6FAA6EA96DA86C122F0C09
:10475100AB39AA38A937A836122F0CAB49AA48A9F8
:1047610047A846122E1BC004C005C006C007AF6F84
:10477100AE6EAD6DAC6CAB6FAA6EA96DA86C122F4D
:104781000CD003D002D001D000122E1BC004C005F2
:10479100C006C007E4FFFEFD7C40AB67AA66A965C1
:1047A100A864122F0CAB6FAA6EA96DA86C122F0C06
:1047B100A804A905AA06AB07D007D006D005D004E6
:1047C100122E178F4D8E4C8D4B8C4AE4FFFEFD7CD3
:1047D10040AB6FAA6EA96DA86C122F0CAB3DAA3C21
:1047E100A93BA83A122F0CAB49AA48A947A84612DF
:1047F1002E1BC004C005C006C007AF6FAE6EAD6D05
:10480100AC6CAB6FAA6EA96DA86C122F0CD003D043
:1048110002D001D000122E1BC004C005C006C00783
:10482100E4FFFEFD7C40AB6BAA6AA969A868122F60
:104831000CAB6FAA6EA96DA86C122F0CA804A90568
:10484100AA06AB07D007D006D005D004122E178FC9
:10485100518E508D4F8C4EE4FFFEFD7C40AB6FAA14
:104861006EA96DA86C122F0CAB39AA38A937A836DE
:10487100122F0CAB49AA48A947A846122E1BC00407
:10488100C005C006C007E4FFFEFD7C40AB6FAA6E09
:10489100A96DA86C122F0CAB3DAA3CA93BA83A12FA
:1048A1002F0CD003D002D001D000122E1BC004C0A7
:1048B10005C006C007E4FFFEFD7C40AB67AA66A900
:1048C10065A864122F0CAB6FAA6EA96DA86C122F8C
:1048D1000CA804A905AA06AB07D007D006D005D0BD
:1048E10004122E17C004C005C006C007E4FFFEFD78
:1048F1007C40AB6BAA6AA969A868122F0CAB6FAA9E
:104901006EA96DA86C122F0CA804A905AA06AB0705
:10491100D007D006D005D004122E17C004C005C0A0
:1049210006C007E4FFFEFD7C40AB6FAA6EA96DA82F
:104931006C122F0CAB6FAA6EA96DA86C122F0CD044
:1049410003D002D001D000122E1B8F558E548D53EF
:104951008C52AF51AE50AD4FAC4E126AD3C004C0B1
:1049610005C006C007AF4DAE4CAD4BAC4A126AD381
:10497100A804A905AA06AB07D007D006D005D00424
:104981001230B24003024A59AF55AE54AD53AC5246
:10499100126AD3C004C005C006C007AF4DAE4CAD0E
:1049A1004BAC4A126AD3A804A905AA06AB07D007E3
:1049B100D006D005D0041230B2AF6FAE6EAD6DAC83
:1049C1006C503C125E25AF39AE38AD37AC36AB6FAB
:1049D100AA6EA96DA86C122E1B8F398E388D378C5B
:1049E10036854D49854C48854B47854A46AF45AE8E
:1049F10044AD43AC42E4FBFA7980783F024B251287
:104A01005E25AF39AE38AD37AC36AB6FAA6EA96D46
:104A1100A86C122E1B8F398E388D378C3612594463
:104A2100AF3DAE3CAD3BAC3AAB6FAA6EA96DA86C85
:104A3100122E1B8F3D8E3C8D3B8C3A8555498554FA
:104A410048855347855246AF45AE44AD43AC42E439
:104A5100FBFAF97840024B25AF55AE54AD53AC5239
:104A6100126AD3C004C005C006C007AF51AE50AD35
:104A71004FAC4E126AD3A804A905AA06AB07D0070A
:104A8100D006D005D0041230B2AF6FAE6EAD6DACB2
:104A91006C503B12594CAF3DAE3CAD3BAC3AAB6FA9
:104AA100AA6EA96DA86C122E1B8F3D8E3C8D3B8C7E
:104AB1003A855149855048854F47854E46AF45AEA9
:104AC10044AD43AC42E4FBFA7980783F8056125EF4
:104AD10025AF39AE38AD37AC36AB6FAA6EA96DA82C
:104AE1006C122E1B8F398E388D378C36125944AF8C
:104AF1003DAE3CAD3BAC3AAB6FAA6EA96DA86C1252
:104B01002E1B8F3D8E3C8D3B8C3A855549855448F3
:104B1100855347855246AF45AE44AD43AC42E4FBB5
:104B2100FAF97840122E1B8F458E448D438C420238
:024B3100472813
:014B3300225F
:103CD300AB25AA24A923A822AF6BAE6AAD69AC6851
:103CE300122E178F2D8E2C8D2B8C2AAB25AA24A94F
:103CF30023A822AF67AE66AD65AC64122E178F3171
:103D03008E308D2F8C2E856B35856A34856933858E
:0A3D13006832AF67AE66AD65AC64C0
:083D1D008F298E288D278C26CA
:103D25008F398E388D378C36852D3D852C3C852BEE
:103D35003B852A3AE4F545F544F543F542F549F561
:103D450048F547F546AB2DAA2CA92BA82AAF35AEC9
:103D550034AD33AC32122E17126AD3C004C005C07D
:103D650006C007AB29AA28A927A826AF31AE30ADD2
:103D75002FAC2E122E17126AD3D003D002D001D049
:103D850000122E1BAB6FAA6EA96DA86C1230158F91
:103D9500418E408D3F8C3EAF41AE40AD3FAC3EAB1A
:103DA50045AA44A943A8421230B240030241A7E400
:103DB500FFFEFD7C40AB6FAA6EA96DA86C122F0C9F
:103DC500AB39AA38A937A836122F0CA804A905AA19
:103DD50006AB07AF49AE48AD47AC46122E17C00437
:103DE500C005C006C007AF6FAE6EAD6DAC6CAB6FF6
:103DF500AA6EA96DA86C122F0CD003D002D001D0E9
:103E050000122E1BC004C005C006C007E4FFFEFD5E
:103E15007C40AB67AA66A965A864122F0CAB6FAA94
:103E25006EA96DA86C122F0CD003D002D001D00062
:103E3500122E1B8F4D8E4C8D4B8C4AE4FFFEFD7C64
:103E450040AB6FAA6EA96DA86C122F0CAB3DAA3CB6
:103E5500A93BA83A122F0CAB49AA48A947A8461274
:103E65002E1BC004C005C006C007AF6FAE6EAD6D9A
:103E7500AC6CAB6FAA6EA96DA86C122F0CD003D0D9
:103E850002D001D000122E1BC004C005C006C00719
:103E9500E4FFFEFD7C40AB6BAA6AA969A868122FF6
:103EA5000CAB6FAA6EA96DA86C122F0CA804A905FE
:103EB500AA06AB07D007D006D005D004122E178F5F
:103EC500518E508D4F8C4EE4FFFEFD7C40AB6FAAAA
:103ED5006EA96DA86C122F0CAB39AA38A937A83674
:103EE500122F0CA804A905AA06AB07AF49AE48AD29
:103EF50047AC46122E17C004C005C006C007E4FF34
:103F0500FEFD7C40AB6FAA6EA96DA86C122F0CABA1
:103F15003DAA3CA93BA83A122F0CD003D002D001F0
:103F2500D000122E1BC004C005C006C007E4FFFE6A
:103F3500FD7C40AB67AA66A965A864122F0CAB6F20
:103F4500AA6EA96DA86C122F0CD003D002D001D097
:103F550000122E1BC004C005C006C007E4FFFEFD0D
:103F65007C40AB6BAA6AA969A868122F0CAB6FAA33
:103F75006EA96DA86C122F0CA804A905AA06AB079B
:103F8500D007D006D005D004122E17C004C005C036
:103F950006C007E4FFFEFD7C40AB6FAA6EA96DA8C5
:103FA5006C122F0CAB6FAA6EA96DA86C122F0CD0DA
:103FB50003D002D001D000122E1B8F558E548D5385
:103FC5008C52AF51AE50AD4FAC4E126AD3C004C047
:103FD50005C006C007AF4DAE4CAD4BAC4A126AD317
:103FE500A804A905AA06AB07D007D006D005D004BA
:103FF5001230B240030240CDAF55AE54AD53AC5272
:10400500126AD3C004C005C006C007AF4DAE4CADA3
:104015004BAC4A126AD3A804A905AA06AB07D00778
:10402500D006D005D0041230B2AF6FAE6EAD6DAC18
:104035006C503C12607EAF39AE38AD37AC36AB6FE5
:10404500AA6EA96DA86C122E178F398E388D378CF4
:1040550036854D49854C48854B47854A46AF45AE23
:1040650044AD43AC42E4FBFA7980783F02419912B2
:10407500607EAF39AE38AD37AC36AB6FAA6EA96D81
:10408500A86C122E178F398E388D378C36125944FD
:10409500AF3DAE3CAD3BAC3AAB6FAA6EA96DA86C1B
:1040A500122E1B8F3D8E3C8D3B8C3A855549855490
:1040B50048855347855246AF45AE44AD43AC42E4CF
:1040C500FBFAF97840024199AF55AE54AD53AC5265
:1040D500126AD3C004C005C006C007AF51AE50ADCB
:1040E5004FAC4E126AD3A804A905AA06AB07D007A0
:1040F500D006D005D0041230B2AF6FAE6EAD6DAC48
:104105006C503B12594CAF3DAE3CAD3BAC3AAB6F3E
:10411500AA6EA96DA86C122E1B8F3D8E3C8D3B8C13
:104125003A855149855048854F47854E46AF45AE3E
:1041350044AD43AC42E4FBFA7980783F8056126087
:104145007EAF39AE38AD37AC36AB6FAA6EA96DA868
:104155006C122E178F398E388D378C36125944AF25
:104165003DAE3CAD3BAC3AAB6FAA6EA96DA86C12E7
:104175002E1B8F3D8E3C8D3B8C3A85554985544889
:10418500855347855246AF45AE44AD43AC42E4FB4B
:10419500FAF97840122E1B8F458E448D438C4202CE
:0241A5003D9C3F
:0141A70022F5
:104B340085612D85602C855F2B855E2A856731858F
:104B4400663085652F85642EAB25AA24A923A82267
:104B5400AF6BAE6AAD69AC68122E178F358E348D8B
:0B4B6400338C32AF5DAE5CAD5BAC5A31
:084B6F008F298E288D278C266A
:104B77008F398E388D378C36852D3D852C3C852B8E
:104B87003B852A3AE4F545F544F543F542F549F501
:104B970048F547F546AB2DAA2CA92BA82AAF35AE69
:104BA70034AD33AC32122E17126AD3C004C005C01D
:104BB70006C007AB29AA28A927A826AF31AE30AD72
:104BC7002FAC2E122E17126AD3D003D002D001D0E9
:104BD70000122E1BAB6FAA6EA96DA86C1230158F31
:104BE700418E408D3F8C3EAF41AE40AD3FAC3EABBA
:104BF70045AA44A943A8421230B24003024FF9E440
:104C0700FFFEFD7C40AB6FAA6EA96DA86C122F0C3E
:104C1700AB39AA38A937A836122F0CA804A905AAB8
:104C270006AB07AF49AE48AD47AC46122E17C004D6
:104C3700C005C006C007AF6FAE6EAD6DAC6CAB6F95
:104C4700AA6EA96DA86C122F0CD003D002D001D088
:104C570000122E1BC004C005C006C007E4FFFEFDFE
:104C67007C40AB67AA66A965A864122F0CAB6FAA34
:104C77006EA96DA86C122F0CD003D002D001D00002
:104C8700122E1B8F4D8E4C8D4B8C4AE4FFFEFD7C04
:104C970040AB6FAA6EA96DA86C122F0CAB3DAA3C56
:104CA700A93BA83A122F0CA804A905AA06AB07AF7F
:104CB70049AE48AD47AC46122E17C004C005C00622
:104CC700C007AF6FAE6EAD6DAC6CAB6FAA6EA96D62
:104CD700A86C122F0CD003D002D001D000122E1BCB
:104CE700C004C005C006C007E4FFFEFD7C40AB6BF7
:104CF700AA6AA969A868122F0CAB6FAA6EA96DA83A
:104D07006C122F0CD003D002D001D000122E1B8FB3
:104D1700518E508D4F8C4EE4FFFEFD7C40AB6FAA49
:104D27006EA96DA86C122F0CAB39AA38A937A83613
:104D3700122F0CA804A905AA06AB07AF49AE48ADC8
:104D470047AC46122E17C004C005C006C007E4FFD3
:104D5700FEFD7C40AB6FAA6EA96DA86C122F0CAB41
:104D67003DAA3CA93BA83A122F0CA804A905AA06FC
:104D7700AB07D007D006D005D004122E17C004C049
:104D870005C006C007E4FFFEFD7C40AB67AA66A925
:104D970065A864122F0CAB6FAA6EA96DA86C122FB1
:104DA7000CD003D002D001D000122E1BC004C005C6
:104DB700C006C007E4FFFEFD7C40AB6BAA6AA96989
:104DC700A868122F0CAB6FAA6EA96DA86C122F0CD6
:104DD700D003D002D001D000122E1BC004C005C0E2
:104DE70006C007E4FFFEFD7C40AB6FAA6EA96DA865
:104DF7006C122F0CAB6FAA6EA96DA86C122F0CD07A
:104E070003D002D001D000122E1B8F558E548D5324
:104E17008C52AF51AE50AD4FAC4E126AD3C004C0E6
:104E270005C006C007AF4DAE4CAD4BAC4A126AD3B6
:104E3700A804A905AA06AB07D007D006D005D00459
:104E47001230B24003024F1FAF55AE54AD53AC52B0
:104E5700126AD3C004C005C006C007AF4DAE4CAD43
:104E67004BAC4A126AD3A804A905AA06AB07D00718
:104E7700D006D005D0041230B2AF6FAE6EAD6DACB8
:104E87006C503C12607EAF39AE38AD37AC36AB6F85
:104E9700AA6EA96DA86C122E178F398E388D378C94
:104EA70036854D49854C48854B47854A46AF45AEC3
:104EB70044AD43AC42E4FBFA7980783F024FEB12F2
:104EC700607EAF39AE38AD37AC36AB6FAA6EA96D21
:104ED700A86C122E178F398E388D378C36125BBE21
:104EE700AF3DAE3CAD3BAC3AAB6FAA6EA96DA86CBB
:104EF700122E178F3D8E3C8D3B8C3A855549855434
:104F070048855347855246AF45AE44AD43AC42E46E
:104F1700FBFAF97840024FEBAF55AE54AD53AC52A4
:104F2700126AD3C004C005C006C007AF51AE50AD6A
:104F37004FAC4E126AD3A804A905AA06AB07D0073F
:104F4700D006D005D0041230B2AF6FAE6EAD6DACE7
:104F57006C503B125BC6AF3DAE3CAD3BAC3AAB6F62
:104F6700AA6EA96DA86C122E178F3D8E3C8D3B8CB7
:104F77003A855149855048854F47854E46AF45AEDE
:104F870044AD43AC42E4FBFA7980783F8056126027
:104F97007EAF39AE38AD37AC36AB6FAA6EA96DA808
:104FA7006C122E178F398E388D378C36125BBEAF49
:104FB7003DAE3CAD3BAC3AAB6FAA6EA96DA86C1287
:104FC7002E178F3D8E3C8D3B8C3A8555498554482D
:104FD700855347855246AF45AE44AD43AC42E4FBEB
:104FE700FAF97840122E1B8F458E448D438C42026E
:024FF7004BEE7F
:014FF9002295
:0810E6008F1D8E1C8D1B8C1A5E
:1010EE00AB6BAA6AA969A868AF61AE60AD5FAC5E72
:1010FE00122E17C004C005C006C007AB6BAA6AA9A2
:10110E0069A868AF61AE60AD5FAC5E122E17D003FA
:10111E00D002D001D000122F0CC004C005C006C0F2
:10112E0007AB67AA66A965A864AF5DAE5CAD5BACA4
:10113E005A122E17C004C005C006C007AB67AA66B8
:10114E00A965A864AF5DAE5CAD5BAC5A122E17D02C
:10115E0003D002D001D000122F0CD003D002D00148
:10116E00D000122E1B1267908F258E248D238C2279
:10117E00AF67AE66AD65AC64AB5DAA5CA95BA85A01
:10118E001230B2500302165DAF6BAE6AAD69AC6839
:10119E00AB61AA60A95FA85E1230B2600250030272
:1011AE00165DAF67AE66AD65AC64AB1DAA1CA91B20
:1011BE00A81A1230B2600250030213B1AF6BAE6ABE
:1011CE00AD69AC68AB21AA20A91FA81E1230B2507F
:1011DE00030213B1AF5DAE5CAD5BAC5AAB1DAA1C86
:1011EE00A91BA81A1230B2405FAF5DAE5CAD5BAC0E
:1011FE005AAB1DAA1CA91BA81A1230B270030221E9
:10120E00C8AF61AE60AD5FAC5EAB21AA20A91FA8CE
:10121E001E1230B240030221C885612D85602C85D7
:10122E005F2B855E2A851D31851C30851B2F851A07
:10123E002E852135852034851F33851E32AF5DAE58
:10124E005CAD5BAC5A123848AF5DAE5CAD5BAC5A70
:10125E00AB1DAA1CA91BA81A1230B240030213B16F
:10126E00AF61AE60AD5FAC5EAB21AA20A91FA81E18
:10127E001230B2600250030221C885612D85602CA8
:10128E00855F2B855E2AAF25AE24AD23AC22AB67DE
:10129E00AA66A965A864122E1B8F318E308D2F8CF5
:1012AE002E856B35856A34856933856832AF5DAEC0
:1012BE005CAD5BAC5A123848AF25AE24AD23AC22E0
:1012CE00AB67AA66A965A864122E1BC004C005C030
:1012DE0006C007856B2D856A2C85692B85682A8546
:1012EE00673185663085652F85642EAB25AA24A9C6
:1012FE0023A822AF6BAE6AAD69AC68122E178F357C
:10130E008E348D338C32D007D006D005D004124BDC
:10131E006F123CD3AB25AA24A923A822AF67AE66D1
:10132E00AD65AC64122E17C004C005C006C007859B
:10133E006B2D856A2C85692B85682A8567318566B4
:10134E003085652F85642EAF25AE24AD23AC22AB40
:10135E006BAA6AA969A868122E1B8F358E348D333D
:10136E008C32D007D006D005D0041246A9AF25AED8
:10137E0024AD23AC22AB6BAA6AA969A868122E1BF6
:10138E008F2D8E2C8D2B8C2A851D31851C30851B27
:10139E002F851A2E852135852034851F33851E32E3
:1013AE00123840AF67AE66AD65AC64AB1DAA1CA922
:1013BE001BA81A1230B25003021456AF6BAE6AADB0
:1013CE0069AC68AB21AA20A91FA81E1230B25078B2
:1013DE0085612D85602C855F2B855E2AAF25AE2419
:1013EE00AD23AC22AB67AA66A965A864122E1B8F2B
:1013FE00318E308D2F8C2E856B35856A3485693311
:10140E00856832AF5DAE5CAD5BAC5A123848AF2525
:10141E00AE24AD23AC22AB67AA66A965A864122ED2
:10142E001B856B2D856A2C85692B85682A851D3158
:10143E00851C30851B2F851A2E85213585203485F8
:10144E001F33851E32124B6FAF67AE66AD65AC644F
:10145E00AB1DAA1CA91BA81A1230B24003021555C7
:10146E00AF6BAE6AAD69AC68AB21AA20A91FA81EEE
:10147E001230B26005400302155585612D85602C32
:10148E00855F2B855E2AAF25AE24AD23AC22AB67DC
:10149E00AA66A965A864122E1B8F318E308D2F8CF3
:1014AE002E856B35856A34856933856832AF5DAEBE
:1014BE005CAD5BAC5A123848AF25AE24AD23AC22DE
:1014CE00AB67AA66A965A864122E1BC004C005C02E
:1014DE0006C007856B2D856A2C85692B85682A8544
:1014EE00673185663085652F85642EAB25AA24A9C4
:1014FE0023A822AF6BAE6AAD69AC68122E178F357A
:10150E008E348D338C32D007D006D005D004124BDA
:10151E006FAB25AA24A923A822AF6BAE6AAD69AC26
:10152E0068122E178F2D8E2C8D2B8C2A851D3185B2
:10153E001C30851B2F851A2E852135852034851F5D
:10154E0033851E32123D15AF67AE66AD65AC64AB2A
:10155E001DAA1CA91BA81A1230B260054003021660
:10156E005DAF6BAE6AAD69AC68AB21AA20A91FA8AE
:10157E001E1230B26002500302165D85612D856029
:10158E002C855F2B855E2AAF25AE24AD23AC22AB16
:10159E0067AA66A965A864122E1B8F318E308D2F17
:1015AE008C2E856B35856A34856933856832AF5DDF
:1015BE00AE5CAD5BAC5A123848AF25AE24AD23AC51
:1015CE0022AB67AA66A965A864122E1BC004C005CB
:1015DE00C006C007856B2D856A2C85692B85682A08
:1015EE0085673185663085652F85642EAB25AA24E7
:1015FE00A923A822AF6BAE6AAD69AC68122E178F05
:10160E00358E348D338C32D007D006D005D00412EF
:10161E004B6F123CD3AB25AA24A923A822AF67AEE9
:10162E0066AD65AC64122E17856B2D856A2C8569A7
:10163E002B85682A851D31851C30851B2F851A2E1A
:10164E00852135852034851F33851E321246A9AF7C
:10165E0067AE66AD65AC64AB5DAA5CA95BA85A12B9
:10166E0030B24003021991AF6BAE6AAD69AC68AB94
:10167E0061AA60A95FA85E1230B25003021991AF41
:10168E0067AE66AD65AC64AB1DAA1CA91BA81A1289
:10169E0030B2600540030217FBAF6BAE6AAD69ACAA
:1016AE0068AB21AA20A91FA81E1230B260025003F7
:1016BE000217FBAF61AE60AD5FAC5EAB21AA20A995
:1016CE001FA81E1230B24059AF61AE60AD5FAC5E66
:1016DE00AB21AA20A91FA81E1230B270030221C886
:1016EE00AF5DAE5CAD5BAC5AAB1DAA1CA91BA81AB4
:1016FE001230B2600250030221C885612D85602C24
:10170E00855F2B855E2A851D31851C30851B2F85B7
:10171E001A2E852135852034851F33851E321246BB
:10172E00A1AF61AE60AD5FAC5EAB21AA20A91FA8D0
:10173E001E1230B240030217FBAF5DAE5CAD5BAC68
:10174E005AAB1DAA1CA91BA81A1230B240030221C3
:10175E00C812466E1237FEAF25AE24AD23AC22ABB7
:10176E0067AA66A965A864122E1BC004C005C00630
:10177E00C007856B2D856A2C85692B85682A856740
:10178E003185663085652F85642EAB25AA24A92365
:10179E00A822AF6BAE6AAD69AC68122E178F358E6C
:1017AE00348D338C32D007D006D005D004124B6F57
:1017BE00123CD3AB25AA24A923A822AF67AE66ADEF
:1017CE0065AC64122E17856B2D856A2C85692B8569
:1017DE00682A851D31851C30851B2F851A2E852183
:1017EE0035852034851F33851E321246A9AF67AE6C
:1017FE0066AD65AC64AB1DAA1CA91BA81A1230B24B
:10180E006050404EAF6BAE6AAD69AC68AB21AA209A
:10181E00A91FA81E1230B2403912466EAF25AE2453
:10182E00AD23AC22AB6BAA6AA969A868122E1B8FD6
:10183E002D8E2C8D2B8C2A851D31851C30851B2FD2
:10184E00851A2E852135852034851F33851E32124B
:10185E003840AF67AE66AD65AC64AB1DAA1CA91B64
:10186E00A81A1230B24055AF6BAE6AAD69AC68AB18
:10187E0021AA20A91FA81E1230B2504012466E1285
:10188E0037FEAF25AE24AD23AC22AB67AA66A965A1
:10189E00A864122E1B856B2D856A2C85692B856895
:1018AE002A851D31851C30851B2F851A2E852135E5
:1018BE00852034851F33851E32124B6FAF67AE669F
:1018CE00AD65AC64AB1DAA1CA91BA81A1230B240A0
:1018DE0003021991AF6BAE6AAD69AC68AB21AA2059
:1018EE00A91FA81E1230B2600540030219911246BC
:1018FE006E1237FEAF25AE24AD23AC22AB67AA66BF
:10190E00A965A864122E1BC004C005C006C00785B9
:10191E006B2D856A2C85692B85682A8567318566CE
:10192E003085652F85642EAB25AA24A923A822AF66
:10193E006BAE6AAD69AC68122E178F358E348D334F
:10194E008C32D007D006D005D004124B6FAB25AA2F
:10195E0024A923A822AF6BAE6AAD69AC68122E170C
:10196E008F2D8E2C8D2B8C2A851D31851C30851B41
:10197E002F851A2E852135852034851F33851E32FD
:10198E00123D15AF67AE66AD65AC64AB5DAA5CA9E2
:10199E005BA85A1230B260054003021E74AF6BAEE4
:1019AE006AAD69AC68AB61AA60A95FA85E1230B27D
:1019BE004003021E74AF67AE66AD65AC64AB1DAA84
:1019CE001CA91BA81A1230B24003021BC8AF6BAE83
:1019DE006AAD69AC68AB21AA20A91FA81E1230B24D
:1019EE0060054003021BC8AF5DAE5CAD5BAC5AAB8D
:1019FE001DAA1CA91BA81A1230B260025061AF5D5D
:101A0E00AE5CAD5BAC5AAB1DAA1CA91BA81A12305A
:101A1E00B270030221C8AF61AE60AD5FAC5EAB21A8
:101A2E00AA20A91FA81E1230B2600250030221C8BC
:101A3E0085612D85602C855F2B855E2A851D318500
:101A4E001C30851B2F851A2E852135852034851F48
:101A5E0033851E32AF5DAE5CAD5BAC5A123D1DAF31
:101A6E005DAE5CAD5BAC5AAB1DAA1CA91BA81A12CD
:101A7E0030B260025003021BC8AF61AE60AD5FAC06
:101A8E005EAB21AA20A91FA81E1230B2400302216C
:101A9E00C885612D85602C855F2B855E2AAB25AAB6
:101AAE0024A923A822AF67AE66AD65AC64122E17CB
:101ABE008F318E308D2F8C2E856B35856A348569EE
:101ACE0033856832AF5DAE5CAD5BAC5A123D1DAB7B
:101ADE0025AA24A923A822AF67AE66AD65AC641211
:101AEE002E17C004C005C006C007856B2D856A2C55
:101AFE0085692B85682A85673185663085652F85D2
:101B0E00642EAF25AE24AD23AC22AB6BAA6AA969B5
:101B1E00A868122E1B8F358E348D338C32D007D0A1
:101B2E0006D005D0041246A91237FEAF25AE24AD5D
:101B3E0023AC22AB67AA66A965A864122E1BC0044B
:101B4E00C005C006C007856B2D856A2C85692B855F
:101B5E00682A85673185663085652F85642EAB25AD
:101B6E00AA24A923A822AF6BAE6AAD69AC68122E67
:101B7E00178F358E348D338C32D007D006D005D0EA
:101B8E0004124B6FAB25AA24A923A822AF6BAE6A11
:101B9E00AD69AC68122E178F2D8E2C8D2B8C2A854D
:101BAE001D31851C30851B2F851A2E8521358520EC
:101BBE0034851F33851E32123D15AF67AE66AD6597
:101BCE00AC64AB1DAA1CA91BA81A1230B26005404A
:101BDE0003021C71AF6BAE6AAD69AC68AB21AA2073
:101BEE00A91FA81E1230B2607A407885612D8560DB
:101BFE002C855F2B855E2AAB25AA24A923A822AFAC
:101C0E0067AE66AD65AC64122E178F318E308D2F98
:101C1E008C2E856B35856A34856933856832AF5D68
:101C2E00AE5CAD5BAC5A123D1DAB25AA24A923A810
:101C3E0022AF67AE66AD65AC64122E17856B2D852F
:101C4E006A2C85692B85682A851D31851C30851B7C
:101C5E002F851A2E852135852034851F33851E321A
:101C6E001246A9AF67AE66AD65AC64AB1DAA1CA9E2
:101C7E001BA81A1230B260025003021D70AF6BAE79
:101C8E006AAD69AC68AB21AA20A91FA81E1230B29A
:101C9E005003021D7085612D85602C855F2B855E3E
:101CAE002AAB25AA24A923A822AF67AE66AD65ACE0
:101CBE0064122E178F318E308D2F8C2E856B3585BD
:101CCE006A34856933856832AF5DAE5CAD5BAC5A04
:101CDE00123D1DAB25AA24A923A822AF67AE66AD7F
:101CEE0065AC64122E17C004C005C006C007856B14
